{
  "_format": "hh-sol-artifact-1",
  "contractName": "StudentSocietyDAO",
  "sourceName": "contracts/StudentSocietyDAO.sol",
  "abi": [
    {
      "inputs": [],
      "stateMutability": "nonpayable",
      "type": "constructor"
    },
    {
      "anonymous": false,
      "inputs": [
        {
          "indexed": false,
          "internalType": "uint256",
          "name": "proposalIndex",
          "type": "uint256"
        }
      ],
      "name": "ProposalInitiated",
      "type": "event"
    },
    {
      "anonymous": false,
      "inputs": [
        {
          "indexed": false,
          "internalType": "address",
          "name": "voter",
          "type": "address"
        },
        {
          "indexed": false,
          "internalType": "uint256",
          "name": "proposalIndex",
          "type": "uint256"
        },
        {
          "indexed": false,
          "internalType": "bool",
          "name": "if_agree",
          "type": "bool"
        },
        {
          "indexed": false,
          "internalType": "uint256",
          "name": "times",
          "type": "uint256"
        }
      ],
      "name": "ProposalVote",
      "type": "event"
    },
    {
      "inputs": [],
      "name": "CREATE_AMOUNT",
      "outputs": [
        {
          "internalType": "uint256",
          "name": "",
          "type": "uint256"
        }
      ],
      "stateMutability": "view",
      "type": "function"
    },
    {
      "inputs": [],
      "name": "VOTE_AMOUNT",
      "outputs": [
        {
          "internalType": "uint256",
          "name": "",
          "type": "uint256"
        }
      ],
      "stateMutability": "view",
      "type": "function"
    },
    {
      "inputs": [],
      "name": "countProposal",
      "outputs": [
        {
          "internalType": "uint16",
          "name": "",
          "type": "uint16"
        }
      ],
      "stateMutability": "view",
      "type": "function"
    },
    {
      "inputs": [
        {
          "internalType": "uint256",
          "name": "end",
          "type": "uint256"
        },
        {
          "internalType": "string",
          "name": "name",
          "type": "string"
        }
      ],
      "name": "createProposal",
      "outputs": [],
      "stateMutability": "nonpayable",
      "type": "function"
    },
    {
      "inputs": [
        {
          "internalType": "uint256",
          "name": "index",
          "type": "uint256"
        }
      ],
      "name": "endTime",
      "outputs": [
        {
          "internalType": "uint256",
          "name": "",
          "type": "uint256"
        }
      ],
      "stateMutability": "view",
      "type": "function"
    },
    {
      "inputs": [
        {
          "internalType": "uint256",
          "name": "index",
          "type": "uint256"
        }
      ],
      "name": "expire",
      "outputs": [],
      "stateMutability": "nonpayable",
      "type": "function"
    },
    {
      "inputs": [
        {
          "internalType": "address",
          "name": "index",
          "type": "address"
        }
      ],
      "name": "fPassCount",
      "outputs": [
        {
          "internalType": "uint256",
          "name": "",
          "type": "uint256"
        }
      ],
      "stateMutability": "view",
      "type": "function"
    },
    {
      "inputs": [
        {
          "internalType": "uint256",
          "name": "index",
          "type": "uint256"
        }
      ],
      "name": "ifPass",
      "outputs": [
        {
          "internalType": "bool",
          "name": "",
          "type": "bool"
        }
      ],
      "stateMutability": "view",
      "type": "function"
    },
    {
      "inputs": [
        {
          "internalType": "address",
          "name": "",
          "type": "address"
        }
      ],
      "name": "passCount",
      "outputs": [
        {
          "internalType": "uint256",
          "name": "",
          "type": "uint256"
        }
      ],
      "stateMutability": "view",
      "type": "function"
    },
    {
      "inputs": [
        {
          "internalType": "uint256",
          "name": "",
          "type": "uint256"
        }
      ],
      "name": "proposals",
      "outputs": [
        {
          "internalType": "uint256",
          "name": "index",
          "type": "uint256"
        },
        {
          "internalType": "address",
          "name": "proposer",
          "type": "address"
        },
        {
          "internalType": "uint256",
          "name": "endTime",
          "type": "uint256"
        },
        {
          "internalType": "string",
          "name": "name",
          "type": "string"
        },
        {
          "internalType": "uint256",
          "name": "agree",
          "type": "uint256"
        },
        {
          "internalType": "uint256",
          "name": "against",
          "type": "uint256"
        },
        {
          "internalType": "bool",
          "name": "pass",
          "type": "bool"
        }
      ],
      "stateMutability": "view",
      "type": "function"
    },
    {
      "inputs": [],
      "name": "studentERC20",
      "outputs": [
        {
          "internalType": "contract stuERC20",
          "name": "",
          "type": "address"
        }
      ],
      "stateMutability": "view",
      "type": "function"
    },
    {
      "inputs": [],
      "name": "studentERC721",
      "outputs": [
        {
          "internalType": "contract stuERC721",
          "name": "",
          "type": "address"
        }
      ],
      "stateMutability": "view",
      "type": "function"
    },
    {
      "inputs": [
        {
          "internalType": "uint256",
          "name": "index",
          "type": "uint256"
        },
        {
          "internalType": "uint256",
          "name": "time",
          "type": "uint256"
        }
      ],
      "name": "vote",
      "outputs": [
        {
          "internalType": "uint256",
          "name": "",
          "type": "uint256"
        }
      ],
      "stateMutability": "nonpayable",
      "type": "function"
    },
    {
      "inputs": [
        {
          "internalType": "uint256",
          "name": "index",
          "type": "uint256"
        },
        {
          "internalType": "uint256",
          "name": "time",
          "type": "uint256"
        }
      ],
      "name": "voteAgainst",
      "outputs": [
        {
          "internalType": "uint256",
          "name": "",
          "type": "uint256"
        }
      ],
      "stateMutability": "nonpayable",
      "type": "function"
    }
  ],
  "bytecode": "0x60806040523480156200001157600080fd5b50604051620000209062000106565b6200002b90620001d3565b604051809103906000f08015801562000048573d6000803e3d6000fd5b50600060026101000a81548173ffffffffffffffffffffffffffffffffffffffff021916908373ffffffffffffffffffffffffffffffffffffffff160217905550604051620000979062000114565b620000a290620002aa565b604051809103906000f080158015620000bf573d6000803e3d6000fd5b50600160006101000a81548173ffffffffffffffffffffffffffffffffffffffff021916908373ffffffffffffffffffffffffffffffffffffffff160217905550620002e1565b611990806200209783390190565b61298d8062003a2783390190565b600082825260208201905092915050565b7f5a6a75546f6b656e000000000000000000000000000000000000000000000000600082015250565b60006200016b60088362000122565b9150620001788262000133565b602082019050919050565b7f7a74000000000000000000000000000000000000000000000000000000000000600082015250565b6000620001bb60028362000122565b9150620001c88262000183565b602082019050919050565b60006040820190508181036000830152620001ee816200015c565b905081810360208301526200020381620001ac565b9050919050565b7f6100000000000000000000000000000000000000000000000000000000000000600082015250565b60006200024260018362000122565b91506200024f826200020a565b602082019050919050565b7f6200000000000000000000000000000000000000000000000000000000000000600082015250565b60006200029260018362000122565b91506200029f826200025a565b602082019050919050565b60006040820190508181036000830152620002c58162000233565b90508181036020830152620002da8162000283565b9050919050565b611da680620002f16000396000f3fe608060405234801561001057600080fd5b50600436106100ea5760003560e01c806376e16c971161008c578063bf81bf4311610066578063bf81bf431461028b578063ca8ef89f146102a7578063ef29f192146102c5578063f97944e0146102f5576100ea565b806376e16c97146101fb578063b384abef1461022b578063b4653d721461025b576100ea565b8063158f2cae116100c8578063158f2cae1461015f5780633901d2d41461018f57806344c816fa146101ad5780636c3fbb2d146101dd576100ea565b8063013cf08b146100ef57806302d52fa4146101255780630320b6d614610141575b600080fd5b610109600480360381019061010491906113bf565b610313565b60405161011c97969594939291906114f0565b60405180910390f35b61013f600480360381019061013a919061169b565b61040a565b005b610149610700565b6040516101569190611714565b60405180910390f35b610179600480360381019061017491906113bf565b610712565b604051610186919061172f565b60405180910390f35b61019761073f565b6040516101a491906117a9565b60405180910390f35b6101c760048036038101906101c291906113bf565b610765565b6040516101d491906117c4565b60405180910390f35b6101e5610785565b6040516101f29190611800565b60405180910390f35b6102156004803603810190610210919061181b565b6107ab565b60405161022291906117c4565b60405180910390f35b6102456004803603810190610240919061181b565b610c1a565b60405161025291906117c4565b60405180910390f35b61027560048036038101906102709190611887565b61103a565b60405161028291906117c4565b60405180910390f35b6102a560048036038101906102a091906113bf565b611083565b005b6102af6112b0565b6040516102bc91906117c4565b60405180910390f35b6102df60048036038101906102da9190611887565b6112b5565b6040516102ec91906117c4565b60405180910390f35b6102fd6112cd565b60405161030a91906117c4565b60405180910390f35b60026020528060005260406000206000915090508060000154908060010160009054906101000a900473ffffffffffffffffffffffffffffffffffffffff1690806002015490806003018054610368906118e3565b80601f0160208091040260200160405190810160405280929190818152602001828054610394906118e3565b80156103e15780601f106103b6576101008083540402835291602001916103e1565b820191906000526020600020905b8154815290600101906020018083116103c457829003601f168201915b5050505050908060040154908060050154908060060160009054906101000a900460ff16905087565b6003600060029054906101000a900473ffffffffffffffffffffffffffffffffffffffff1673ffffffffffffffffffffffffffffffffffffffff166370a08231336040518263ffffffff1660e01b81526004016104679190611915565b60206040518083038186803b15801561047f57600080fd5b505afa158015610493573d6000803e3d6000fd5b505050506040513d601f19601f820116820180604052508101906104b79190611945565b10156104f8576040517f08c379a00000000000000000000000000000000000000000000000000000000081526004016104ef906119be565b60405180910390fd5b6000600260008060009054906101000a900461ffff1661ffff168152602001908152602001600020905060008054906101000a900461ffff1661ffff1681600001819055506000816004018190555060008160050181905550818160030190805190602001906105699291906112d2565b5082816002018190555060008160060160006101000a81548160ff021916908315150217905550338160010160006101000a81548173ffffffffffffffffffffffffffffffffffffffff021916908373ffffffffffffffffffffffffffffffffffffffff16021790555060008081819054906101000a900461ffff16809291906105f290611a0d565b91906101000a81548161ffff021916908361ffff16021790555050600060029054906101000a900473ffffffffffffffffffffffffffffffffffffffff1673ffffffffffffffffffffffffffffffffffffffff166323b872dd333060036040518463ffffffff1660e01b815260040161066d93929190611a38565b602060405180830381600087803b15801561068757600080fd5b505af115801561069b573d6000803e3d6000fd5b505050506040513d601f19601f820116820180604052508101906106bf9190611a9b565b507f2f01915771bca677a858afb22ff96f7bbcd29e8dbb1fc35c6e3d202e3484523281600001546040516106f391906117c4565b60405180910390a1505050565b60008054906101000a900461ffff1681565b60006002600083815260200190815260200160002060060160009054906101000a900460ff169050919050565b600160009054906101000a900473ffffffffffffffffffffffffffffffffffffffff1681565b600060026000838152602001908152602001600020600201549050919050565b600060029054906101000a900473ffffffffffffffffffffffffffffffffffffffff1681565b60008060009054906101000a900461ffff1661ffff168310610802576040517f08c379a00000000000000000000000000000000000000000000000000000000081526004016107f990611b14565b60405180910390fd5b816002600085815260200190815260200160002060020154101561085b576040517f08c379a000000000000000000000000000000000000000000000000000000000815260040161085290611b80565b60405180910390fd5b60036002600085815260200190815260200160002060070160003373ffffffffffffffffffffffffffffffffffffffff1673ffffffffffffffffffffffffffffffffffffffff16815260200190815260200160002060009054906101000a900461ffff1661ffff1610610903576040517f08c379a00000000000000000000000000000000000000000000000000000000081526004016108fa90611c12565b60405180910390fd5b6001600060029054906101000a900473ffffffffffffffffffffffffffffffffffffffff1673ffffffffffffffffffffffffffffffffffffffff166370a08231336040518263ffffffff1660e01b81526004016109609190611915565b60206040518083038186803b15801561097857600080fd5b505afa15801561098c573d6000803e3d6000fd5b505050506040513d601f19601f820116820180604052508101906109b09190611945565b10156109f1576040517f08c379a00000000000000000000000000000000000000000000000000000000081526004016109e8906119be565b60405180910390fd5b600260008481526020019081526020016000206005016000815480929190610a1890611c32565b91905055506002600084815260200190815260200160002060070160003373ffffffffffffffffffffffffffffffffffffffff1673ffffffffffffffffffffffffffffffffffffffff168152602001908152602001600020600081819054906101000a900461ffff1680929190610a8e90611a0d565b91906101000a81548161ffff021916908361ffff16021790555050600060029054906101000a900473ffffffffffffffffffffffffffffffffffffffff1673ffffffffffffffffffffffffffffffffffffffff166323b872dd333060016040518463ffffffff1660e01b8152600401610b0993929190611a38565b602060405180830381600087803b158015610b2357600080fd5b505af1158015610b37573d6000803e3d6000fd5b505050506040513d601f19601f82011682018060405250810190610b5b9190611a9b565b507f013a0486afc65663a3f6eacf60c26cbd3e1085e7375f2834ea6b377f5685f5b9338460006002600088815260200190815260200160002060070160003373ffffffffffffffffffffffffffffffffffffffff1673ffffffffffffffffffffffffffffffffffffffff16815260200190815260200160002060009054906101000a900461ffff16604051610bf39493929190611cac565b60405180910390a16002600084815260200190815260200160002060050154905092915050565b60008060009054906101000a900461ffff1661ffff168310610c71576040517f08c379a0000000000000000000000000000000000000000000000000000000008152600401610c6890611b14565b60405180910390fd5b8160026000858152602001908152602001600020600201541015610cca576040517f08c379a0000000000000000000000000000000000000000000000000000000008152600401610cc190611b80565b60405180910390fd5b8160026000858152602001908152602001600020600201541015610d23576040517f08c379a0000000000000000000000000000000000000000000000000000000008152600401610d1a90611c12565b60405180910390fd5b6001600060029054906101000a900473ffffffffffffffffffffffffffffffffffffffff1673ffffffffffffffffffffffffffffffffffffffff166370a08231336040518263ffffffff1660e01b8152600401610d809190611915565b60206040518083038186803b158015610d9857600080fd5b505afa158015610dac573d6000803e3d6000fd5b505050506040513d601f19601f82011682018060405250810190610dd09190611945565b1015610e11576040517f08c379a0000000000000000000000000000000000000000000000000000000008152600401610e08906119be565b60405180910390fd5b600260008481526020019081526020016000206004016000815480929190610e3890611c32565b91905055506002600084815260200190815260200160002060070160003373ffffffffffffffffffffffffffffffffffffffff1673ffffffffffffffffffffffffffffffffffffffff168152602001908152602001600020600081819054906101000a900461ffff1680929190610eae90611a0d565b91906101000a81548161ffff021916908361ffff16021790555050600060029054906101000a900473ffffffffffffffffffffffffffffffffffffffff1673ffffffffffffffffffffffffffffffffffffffff166323b872dd333060016040518463ffffffff1660e01b8152600401610f2993929190611a38565b602060405180830381600087803b158015610f4357600080fd5b505af1158015610f57573d6000803e3d6000fd5b505050506040513d601f19601f82011682018060405250810190610f7b9190611a9b565b507f013a0486afc65663a3f6eacf60c26cbd3e1085e7375f2834ea6b377f5685f5b9338460016002600088815260200190815260200160002060070160003373ffffffffffffffffffffffffffffffffffffffff1673ffffffffffffffffffffffffffffffffffffffff16815260200190815260200160002060009054906101000a900461ffff166040516110139493929190611cac565b60405180910390a16002600084815260200190815260200160002060040154905092915050565b6000600360008373ffffffffffffffffffffffffffffffffffffffff1673ffffffffffffffffffffffffffffffffffffffff168152602001908152602001600020549050919050565b600260008281526020019081526020016000206005015460026000838152602001908152602001600020600401541180156110e55750600015156002600083815260200190815260200160002060060160009054906101000a900460ff161515145b1561127e57600060029054906101000a900473ffffffffffffffffffffffffffffffffffffffff1673ffffffffffffffffffffffffffffffffffffffff1663a9059cbb6002600084815260200190815260200160002060010160009054906101000a900473ffffffffffffffffffffffffffffffffffffffff16600360026000868152602001908152602001600020600401546111829190611cf1565b6040518363ffffffff1660e01b815260040161119f929190611d47565b602060405180830381600087803b1580156111b957600080fd5b505af11580156111cd573d6000803e3d6000fd5b505050506040513d601f19601f820116820180604052508101906111f19190611a9b565b50600360006002600084815260200190815260200160002060010160009054906101000a900473ffffffffffffffffffffffffffffffffffffffff1673ffffffffffffffffffffffffffffffffffffffff1673ffffffffffffffffffffffffffffffffffffffff168152602001908152602001600020600081548092919061127890611c32565b91905055505b60016002600083815260200190815260200160002060060160006101000a81548160ff02191690831515021790555050565b600181565b60036020528060005260406000206000915090505481565b600381565b8280546112de906118e3565b90600052602060002090601f0160209004810192826113005760008555611347565b82601f1061131957805160ff1916838001178555611347565b82800160010185558215611347579182015b8281111561134657825182559160200191906001019061132b565b5b5090506113549190611358565b5090565b5b80821115611371576000816000905550600101611359565b5090565b6000604051905090565b600080fd5b600080fd5b6000819050919050565b61139c81611389565b81146113a757600080fd5b50565b6000813590506113b981611393565b92915050565b6000602082840312156113d5576113d461137f565b5b60006113e3848285016113aa565b91505092915050565b6113f581611389565b82525050565b600073ffffffffffffffffffffffffffffffffffffffff82169050919050565b6000611426826113fb565b9050919050565b6114368161141b565b82525050565b600081519050919050565b600082825260208201905092915050565b60005b8381101561147657808201518184015260208101905061145b565b83811115611485576000848401525b50505050565b6000601f19601f8301169050919050565b60006114a78261143c565b6114b18185611447565b93506114c1818560208601611458565b6114ca8161148b565b840191505092915050565b60008115159050919050565b6114ea816114d5565b82525050565b600060e082019050611505600083018a6113ec565b611512602083018961142d565b61151f60408301886113ec565b8181036060830152611531818761149c565b905061154060808301866113ec565b61154d60a08301856113ec565b61155a60c08301846114e1565b98975050505050505050565b600080fd5b600080fd5b7f4e487b7100000000000000000000000000000000000000000000000000000000600052604160045260246000fd5b6115a88261148b565b810181811067ffffffffffffffff821117156115c7576115c6611570565b5b80604052505050565b60006115da611375565b90506115e6828261159f565b919050565b600067ffffffffffffffff82111561160657611605611570565b5b61160f8261148b565b9050602081019050919050565b82818337600083830152505050565b600061163e611639846115eb565b6115d0565b90508281526020810184848401111561165a5761165961156b565b5b61166584828561161c565b509392505050565b600082601f83011261168257611681611566565b5b813561169284826020860161162b565b91505092915050565b600080604083850312156116b2576116b161137f565b5b60006116c0858286016113aa565b925050602083013567ffffffffffffffff8111156116e1576116e0611384565b5b6116ed8582860161166d565b9150509250929050565b600061ffff82169050919050565b61170e816116f7565b82525050565b60006020820190506117296000830184611705565b92915050565b600060208201905061174460008301846114e1565b92915050565b6000819050919050565b600061176f61176a611765846113fb565b61174a565b6113fb565b9050919050565b600061178182611754565b9050919050565b600061179382611776565b9050919050565b6117a381611788565b82525050565b60006020820190506117be600083018461179a565b92915050565b60006020820190506117d960008301846113ec565b92915050565b60006117ea82611776565b9050919050565b6117fa816117df565b82525050565b600060208201905061181560008301846117f1565b92915050565b600080604083850312156118325761183161137f565b5b6000611840858286016113aa565b9250506020611851858286016113aa565b9150509250929050565b6118648161141b565b811461186f57600080fd5b50565b6000813590506118818161185b565b92915050565b60006020828403121561189d5761189c61137f565b5b60006118ab84828501611872565b91505092915050565b7f4e487b7100000000000000000000000000000000000000000000000000000000600052602260045260246000fd5b600060028204905060018216806118fb57607f821691505b6020821081141561190f5761190e6118b4565b5b50919050565b600060208201905061192a600083018461142d565b92915050565b60008151905061193f81611393565b92915050565b60006020828403121561195b5761195a61137f565b5b600061196984828501611930565b91505092915050565b7f696e73756666696369656e742062616c616e6365000000000000000000000000600082015250565b60006119a8601483611447565b91506119b382611972565b602082019050919050565b600060208201905081810360008301526119d78161199b565b9050919050565b7f4e487b7100000000000000000000000000000000000000000000000000000000600052601160045260246000fd5b6000611a18826116f7565b915061ffff821415611a2d57611a2c6119de565b5b600182019050919050565b6000606082019050611a4d600083018661142d565b611a5a602083018561142d565b611a6760408301846113ec565b949350505050565b611a78816114d5565b8114611a8357600080fd5b50565b600081519050611a9581611a6f565b92915050565b600060208284031215611ab157611ab061137f565b5b6000611abf84828501611a86565b91505092915050565b7f696e76616c69642070726f706f73616c20696e64657800000000000000000000600082015250565b6000611afe601683611447565b9150611b0982611ac8565b602082019050919050565b60006020820190508181036000830152611b2d81611af1565b9050919050565b7f70726f706f73616c206861732065787069726564000000000000000000000000600082015250565b6000611b6a601483611447565b9150611b7582611b34565b602082019050919050565b60006020820190508181036000830152611b9981611b5d565b9050919050565b7f796f752063616e206f6e6c7920766f7465206f6e20612070726f706f73616c2060008201527f332074696d657300000000000000000000000000000000000000000000000000602082015250565b6000611bfc602783611447565b9150611c0782611ba0565b604082019050919050565b60006020820190508181036000830152611c2b81611bef565b9050919050565b6000611c3d82611389565b91507fffffffffffffffffffffffffffffffffffffffffffffffffffffffffffffffff821415611c7057611c6f6119de565b5b600182019050919050565b6000611c96611c91611c8c846116f7565b61174a565b611389565b9050919050565b611ca681611c7b565b82525050565b6000608082019050611cc1600083018761142d565b611cce60208301866113ec565b611cdb60408301856114e1565b611ce86060830184611c9d565b95945050505050565b6000611cfc82611389565b9150611d0783611389565b9250827fffffffffffffffffffffffffffffffffffffffffffffffffffffffffffffffff03821115611d3c57611d3b6119de565b5b828201905092915050565b6000604082019050611d5c600083018561142d565b611d6960208301846113ec565b939250505056fea2646970667358221220b0b2fe2c968062961e7bcbd8daa66e953f108893cc572b4d2110bb2b04ab13f464736f6c6343000809003360806040523480156200001157600080fd5b5060405162001990380380620019908339818101604052810190620000379190620002c2565b818181600390805190602001906200005192919062000075565b5080600490805190602001906200006a92919062000075565b5050505050620003ac565b828054620000839062000376565b90600052602060002090601f016020900481019282620000a75760008555620000f3565b82601f10620000c257805160ff1916838001178555620000f3565b82800160010185558215620000f3579182015b82811115620000f2578251825591602001919060010190620000d5565b5b50905062000102919062000106565b5090565b5b808211156200012157600081600090555060010162000107565b5090565b6000604051905090565b600080fd5b600080fd5b600080fd5b600080fd5b6000601f19601f8301169050919050565b7f4e487b7100000000000000000000000000000000000000000000000000000000600052604160045260246000fd5b6200018e8262000143565b810181811067ffffffffffffffff82111715620001b057620001af62000154565b5b80604052505050565b6000620001c562000125565b9050620001d3828262000183565b919050565b600067ffffffffffffffff821115620001f657620001f562000154565b5b620002018262000143565b9050602081019050919050565b60005b838110156200022e57808201518184015260208101905062000211565b838111156200023e576000848401525b50505050565b60006200025b6200025584620001d8565b620001b9565b9050828152602081018484840111156200027a57620002796200013e565b5b620002878482856200020e565b509392505050565b600082601f830112620002a757620002a662000139565b5b8151620002b984826020860162000244565b91505092915050565b60008060408385031215620002dc57620002db6200012f565b5b600083015167ffffffffffffffff811115620002fd57620002fc62000134565b5b6200030b858286016200028f565b925050602083015167ffffffffffffffff8111156200032f576200032e62000134565b5b6200033d858286016200028f565b9150509250929050565b7f4e487b7100000000000000000000000000000000000000000000000000000000600052602260045260246000fd5b600060028204905060018216806200038f57607f821691505b60208210811415620003a657620003a562000347565b5b50919050565b6115d480620003bc6000396000f3fe608060405234801561001057600080fd5b50600436106100b45760003560e01c80633950935111610071578063395093511461017d57806370a08231146101ad57806395d89b41146101dd578063a457c2d7146101fb578063a9059cbb1461022b578063dd62ed3e1461025b576100b4565b806306fdde03146100b9578063095ea7b3146100d757806318160ddd1461010757806323b872dd14610125578063313ce567146101555780633884d63514610173575b600080fd5b6100c161028b565b6040516100ce9190610d90565b60405180910390f35b6100f160048036038101906100ec9190610e4b565b61031d565b6040516100fe9190610ea6565b60405180910390f35b61010f610340565b60405161011c9190610ed0565b60405180910390f35b61013f600480360381019061013a9190610eeb565b61034a565b60405161014c9190610ea6565b60405180910390f35b61015d610379565b60405161016a9190610f5a565b60405180910390f35b61017b610382565b005b61019760048036038101906101929190610e4b565b61047b565b6040516101a49190610ea6565b60405180910390f35b6101c760048036038101906101c29190610f75565b6104b2565b6040516101d49190610ed0565b60405180910390f35b6101e56104fa565b6040516101f29190610d90565b60405180910390f35b61021560048036038101906102109190610e4b565b61058c565b6040516102229190610ea6565b60405180910390f35b61024560048036038101906102409190610e4b565b610603565b6040516102529190610ea6565b60405180910390f35b61027560048036038101906102709190610fa2565b610626565b6040516102829190610ed0565b60405180910390f35b60606003805461029a90611011565b80601f01602080910402602001604051908101604052809291908181526020018280546102c690611011565b80156103135780601f106102e857610100808354040283529160200191610313565b820191906000526020600020905b8154815290600101906020018083116102f657829003601f168201915b5050505050905090565b6000806103286106ad565b90506103358185856106b5565b600191505092915050565b6000600254905090565b6000806103556106ad565b9050610362858285610880565b61036d85858561090c565b60019150509392505050565b60006012905090565b60001515600560003373ffffffffffffffffffffffffffffffffffffffff1673ffffffffffffffffffffffffffffffffffffffff16815260200190815260200160002060009054906101000a900460ff16151514610415576040517f08c379a000000000000000000000000000000000000000000000000000000000815260040161040c906110b5565b60405180910390fd5b610421336103e8610b8d565b6001600560003373ffffffffffffffffffffffffffffffffffffffff1673ffffffffffffffffffffffffffffffffffffffff16815260200190815260200160002060006101000a81548160ff021916908315150217905550565b6000806104866106ad565b90506104a78185856104988589610626565b6104a29190611104565b6106b5565b600191505092915050565b60008060008373ffffffffffffffffffffffffffffffffffffffff1673ffffffffffffffffffffffffffffffffffffffff168152602001908152602001600020549050919050565b60606004805461050990611011565b80601f016020809104026020016040519081016040528092919081815260200182805461053590611011565b80156105825780601f1061055757610100808354040283529160200191610582565b820191906000526020600020905b81548152906001019060200180831161056557829003601f168201915b5050505050905090565b6000806105976106ad565b905060006105a58286610626565b9050838110156105ea576040517f08c379a00000000000000000000000000000000000000000000000000000000081526004016105e1906111cc565b60405180910390fd5b6105f782868684036106b5565b60019250505092915050565b60008061060e6106ad565b905061061b81858561090c565b600191505092915050565b6000600160008473ffffffffffffffffffffffffffffffffffffffff1673ffffffffffffffffffffffffffffffffffffffff16815260200190815260200160002060008373ffffffffffffffffffffffffffffffffffffffff1673ffffffffffffffffffffffffffffffffffffffff16815260200190815260200160002054905092915050565b600033905090565b600073ffffffffffffffffffffffffffffffffffffffff168373ffffffffffffffffffffffffffffffffffffffff161415610725576040517f08c379a000000000000000000000000000000000000000000000000000000000815260040161071c9061125e565b60405180910390fd5b600073ffffffffffffffffffffffffffffffffffffffff168273ffffffffffffffffffffffffffffffffffffffff161415610795576040517f08c379a000000000000000000000000000000000000000000000000000000000815260040161078c906112f0565b60405180910390fd5b80600160008573ffffffffffffffffffffffffffffffffffffffff1673ffffffffffffffffffffffffffffffffffffffff16815260200190815260200160002060008473ffffffffffffffffffffffffffffffffffffffff1673ffffffffffffffffffffffffffffffffffffffff168152602001908152602001600020819055508173ffffffffffffffffffffffffffffffffffffffff168373ffffffffffffffffffffffffffffffffffffffff167f8c5be1e5ebec7d5bd14f71427d1e84f3dd0314c0f7b2291e5b200ac8c7c3b925836040516108739190610ed0565b60405180910390a3505050565b600061088c8484610626565b90507fffffffffffffffffffffffffffffffffffffffffffffffffffffffffffffffff811461090657818110156108f8576040517f08c379a00000000000000000000000000000000000000000000000000000000081526004016108ef9061135c565b60405180910390fd5b61090584848484036106b5565b5b50505050565b600073ffffffffffffffffffffffffffffffffffffffff168373ffffffffffffffffffffffffffffffffffffffff16141561097c576040517f08c379a0000000000000000000000000000000000000000000000000000000008152600401610973906113ee565b60405180910390fd5b600073ffffffffffffffffffffffffffffffffffffffff168273ffffffffffffffffffffffffffffffffffffffff1614156109ec576040517f08c379a00000000000000000000000000000000000000000000000000000000081526004016109e390611480565b60405180910390fd5b6109f7838383610ced565b60008060008573ffffffffffffffffffffffffffffffffffffffff1673ffffffffffffffffffffffffffffffffffffffff16815260200190815260200160002054905081811015610a7d576040517f08c379a0000000000000000000000000000000000000000000000000000000008152600401610a7490611512565b60405180910390fd5b8181036000808673ffffffffffffffffffffffffffffffffffffffff1673ffffffffffffffffffffffffffffffffffffffff16815260200190815260200160002081905550816000808573ffffffffffffffffffffffffffffffffffffffff1673ffffffffffffffffffffffffffffffffffffffff1681526020019081526020016000206000828254610b109190611104565b925050819055508273ffffffffffffffffffffffffffffffffffffffff168473ffffffffffffffffffffffffffffffffffffffff167fddf252ad1be2c89b69c2b068fc378daa952ba7f163c4a11628f55a4df523b3ef84604051610b749190610ed0565b60405180910390a3610b87848484610cf2565b50505050565b600073ffffffffffffffffffffffffffffffffffffffff168273ffffffffffffffffffffffffffffffffffffffff161415610bfd576040517f08c379a0000000000000000000000000000000000000000000000000000000008152600401610bf49061157e565b60405180910390fd5b610c0960008383610ced565b8060026000828254610c1b9190611104565b92505081905550806000808473ffffffffffffffffffffffffffffffffffffffff1673ffffffffffffffffffffffffffffffffffffffff1681526020019081526020016000206000828254610c709190611104565b925050819055508173ffffffffffffffffffffffffffffffffffffffff16600073ffffffffffffffffffffffffffffffffffffffff167fddf252ad1be2c89b69c2b068fc378daa952ba7f163c4a11628f55a4df523b3ef83604051610cd59190610ed0565b60405180910390a3610ce960008383610cf2565b5050565b505050565b505050565b600081519050919050565b600082825260208201905092915050565b60005b83811015610d31578082015181840152602081019050610d16565b83811115610d40576000848401525b50505050565b6000601f19601f8301169050919050565b6000610d6282610cf7565b610d6c8185610d02565b9350610d7c818560208601610d13565b610d8581610d46565b840191505092915050565b60006020820190508181036000830152610daa8184610d57565b905092915050565b600080fd5b600073ffffffffffffffffffffffffffffffffffffffff82169050919050565b6000610de282610db7565b9050919050565b610df281610dd7565b8114610dfd57600080fd5b50565b600081359050610e0f81610de9565b92915050565b6000819050919050565b610e2881610e15565b8114610e3357600080fd5b50565b600081359050610e4581610e1f565b92915050565b60008060408385031215610e6257610e61610db2565b5b6000610e7085828601610e00565b9250506020610e8185828601610e36565b9150509250929050565b60008115159050919050565b610ea081610e8b565b82525050565b6000602082019050610ebb6000830184610e97565b92915050565b610eca81610e15565b82525050565b6000602082019050610ee56000830184610ec1565b92915050565b600080600060608486031215610f0457610f03610db2565b5b6000610f1286828701610e00565b9350506020610f2386828701610e00565b9250506040610f3486828701610e36565b9150509250925092565b600060ff82169050919050565b610f5481610f3e565b82525050565b6000602082019050610f6f6000830184610f4b565b92915050565b600060208284031215610f8b57610f8a610db2565b5b6000610f9984828501610e00565b91505092915050565b60008060408385031215610fb957610fb8610db2565b5b6000610fc785828601610e00565b9250506020610fd885828601610e00565b9150509250929050565b7f4e487b7100000000000000000000000000000000000000000000000000000000600052602260045260246000fd5b6000600282049050600182168061102957607f821691505b6020821081141561103d5761103c610fe2565b5b50919050565b7f5468697320757365722068617320636c61696d65642061697264726f7020616c60008201527f7265616479000000000000000000000000000000000000000000000000000000602082015250565b600061109f602583610d02565b91506110aa82611043565b604082019050919050565b600060208201905081810360008301526110ce81611092565b9050919050565b7f4e487b7100000000000000000000000000000000000000000000000000000000600052601160045260246000fd5b600061110f82610e15565b915061111a83610e15565b9250827fffffffffffffffffffffffffffffffffffffffffffffffffffffffffffffffff0382111561114f5761114e6110d5565b5b828201905092915050565b7f45524332303a2064656372656173656420616c6c6f77616e63652062656c6f7760008201527f207a65726f000000000000000000000000000000000000000000000000000000602082015250565b60006111b6602583610d02565b91506111c18261115a565b604082019050919050565b600060208201905081810360008301526111e5816111a9565b9050919050565b7f45524332303a20617070726f76652066726f6d20746865207a65726f2061646460008201527f7265737300000000000000000000000000000000000000000000000000000000602082015250565b6000611248602483610d02565b9150611253826111ec565b604082019050919050565b600060208201905081810360008301526112778161123b565b9050919050565b7f45524332303a20617070726f766520746f20746865207a65726f20616464726560008201527f7373000000000000000000000000000000000000000000000000000000000000602082015250565b60006112da602283610d02565b91506112e58261127e565b604082019050919050565b60006020820190508181036000830152611309816112cd565b9050919050565b7f45524332303a20696e73756666696369656e7420616c6c6f77616e6365000000600082015250565b6000611346601d83610d02565b915061135182611310565b602082019050919050565b6000602082019050818103600083015261137581611339565b9050919050565b7f45524332303a207472616e736665722066726f6d20746865207a65726f20616460008201527f6472657373000000000000000000000000000000000000000000000000000000602082015250565b60006113d8602583610d02565b91506113e38261137c565b604082019050919050565b60006020820190508181036000830152611407816113cb565b9050919050565b7f45524332303a207472616e7366657220746f20746865207a65726f206164647260008201527f6573730000000000000000000000000000000000000000000000000000000000602082015250565b600061146a602383610d02565b91506114758261140e565b604082019050919050565b600060208201905081810360008301526114998161145d565b9050919050565b7f45524332303a207472616e7366657220616d6f756e742065786365656473206260008201527f616c616e63650000000000000000000000000000000000000000000000000000602082015250565b60006114fc602683610d02565b9150611507826114a0565b604082019050919050565b6000602082019050818103600083015261152b816114ef565b9050919050565b7f45524332303a206d696e7420746f20746865207a65726f206164647265737300600082015250565b6000611568601f83610d02565b915061157382611532565b602082019050919050565b600060208201905081810360008301526115978161155b565b905091905056fea2646970667358221220b02f7732e9bd01ec2cdd80cc0b51e81657b78f1da72c5ec2062f0b8d9dc9711864736f6c6343000809003360806040523480156200001157600080fd5b506040516200298d3803806200298d8339818101604052810190620000379190620002c2565b818181600090805190602001906200005192919062000075565b5080600190805190602001906200006a92919062000075565b5050505050620003ac565b828054620000839062000376565b90600052602060002090601f016020900481019282620000a75760008555620000f3565b82601f10620000c257805160ff1916838001178555620000f3565b82800160010185558215620000f3579182015b82811115620000f2578251825591602001919060010190620000d5565b5b50905062000102919062000106565b5090565b5b808211156200012157600081600090555060010162000107565b5090565b6000604051905090565b600080fd5b600080fd5b600080fd5b600080fd5b6000601f19601f8301169050919050565b7f4e487b7100000000000000000000000000000000000000000000000000000000600052604160045260246000fd5b6200018e8262000143565b810181811067ffffffffffffffff82111715620001b057620001af62000154565b5b80604052505050565b6000620001c562000125565b9050620001d3828262000183565b919050565b600067ffffffffffffffff821115620001f657620001f562000154565b5b620002018262000143565b9050602081019050919050565b60005b838110156200022e57808201518184015260208101905062000211565b838111156200023e576000848401525b50505050565b60006200025b6200025584620001d8565b620001b9565b9050828152602081018484840111156200027a57620002796200013e565b5b620002878482856200020e565b509392505050565b600082601f830112620002a757620002a662000139565b5b8151620002b984826020860162000244565b91505092915050565b60008060408385031215620002dc57620002db6200012f565b5b600083015167ffffffffffffffff811115620002fd57620002fc62000134565b5b6200030b858286016200028f565b925050602083015167ffffffffffffffff8111156200032f576200032e62000134565b5b6200033d858286016200028f565b9150509250929050565b7f4e487b7100000000000000000000000000000000000000000000000000000000600052602260045260246000fd5b600060028204905060018216806200038f57607f821691505b60208210811415620003a657620003a562000347565b5b50919050565b6125d180620003bc6000396000f3fe608060405234801561001057600080fd5b50600436106100ea5760003560e01c80636c9578a51161008c578063a22cb46511610066578063a22cb46514610249578063b88d4fde14610265578063c87b56dd14610281578063e985e9c5146102b1576100ea565b80636c9578a5146101f157806370a08231146101fb57806395d89b411461022b576100ea565b8063095ea7b3116100c8578063095ea7b31461016d57806323b872dd1461018957806342842e0e146101a55780636352211e146101c1576100ea565b806301ffc9a7146100ef57806306fdde031461011f578063081812fc1461013d575b600080fd5b610109600480360381019061010491906116c4565b6102e1565b604051610116919061170c565b60405180910390f35b6101276103c3565b60405161013491906117c0565b60405180910390f35b61015760048036038101906101529190611818565b610455565b6040516101649190611886565b60405180910390f35b610187600480360381019061018291906118cd565b61049b565b005b6101a3600480360381019061019e919061190d565b6105b3565b005b6101bf60048036038101906101ba919061190d565b610613565b005b6101db60048036038101906101d69190611818565b610633565b6040516101e89190611886565b60405180910390f35b6101f96106e5565b005b61021560048036038101906102109190611960565b6107dd565b604051610222919061199c565b60405180910390f35b610233610895565b60405161024091906117c0565b60405180910390f35b610263600480360381019061025e91906119e3565b610927565b005b61027f600480360381019061027a9190611b58565b61093d565b005b61029b60048036038101906102969190611818565b61099f565b6040516102a891906117c0565b60405180910390f35b6102cb60048036038101906102c69190611bdb565b610a07565b6040516102d8919061170c565b60405180910390f35b60007f80ac58cd000000000000000000000000000000000000000000000000000000007bffffffffffffffffffffffffffffffffffffffffffffffffffffffff1916827bffffffffffffffffffffffffffffffffffffffffffffffffffffffff191614806103ac57507f5b5e139f000000000000000000000000000000000000000000000000000000007bffffffffffffffffffffffffffffffffffffffffffffffffffffffff1916827bffffffffffffffffffffffffffffffffffffffffffffffffffffffff1916145b806103bc57506103bb82610a9b565b5b9050919050565b6060600080546103d290611c4a565b80601f01602080910402602001604051908101604052809291908181526020018280546103fe90611c4a565b801561044b5780601f106104205761010080835404028352916020019161044b565b820191906000526020600020905b81548152906001019060200180831161042e57829003601f168201915b5050505050905090565b600061046082610b05565b6004600083815260200190815260200160002060009054906101000a900473ffffffffffffffffffffffffffffffffffffffff169050919050565b60006104a682610633565b90508073ffffffffffffffffffffffffffffffffffffffff168373ffffffffffffffffffffffffffffffffffffffff161415610517576040517f08c379a000000000000000000000000000000000000000000000000000000000815260040161050e90611cee565b60405180910390fd5b8073ffffffffffffffffffffffffffffffffffffffff16610536610b50565b73ffffffffffffffffffffffffffffffffffffffff16148061056557506105648161055f610b50565b610a07565b5b6105a4576040517f08c379a000000000000000000000000000000000000000000000000000000000815260040161059b90611d80565b60405180910390fd5b6105ae8383610b58565b505050565b6105c46105be610b50565b82610c11565b610603576040517f08c379a00000000000000000000000000000000000000000000000000000000081526004016105fa90611e12565b60405180910390fd5b61060e838383610ca6565b505050565b61062e8383836040518060200160405280600081525061093d565b505050565b6000806002600084815260200190815260200160002060009054906101000a900473ffffffffffffffffffffffffffffffffffffffff169050600073ffffffffffffffffffffffffffffffffffffffff168173ffffffffffffffffffffffffffffffffffffffff1614156106dc576040517f08c379a00000000000000000000000000000000000000000000000000000000081526004016106d390611e7e565b60405180910390fd5b80915050919050565b60001515600660003373ffffffffffffffffffffffffffffffffffffffff1673ffffffffffffffffffffffffffffffffffffffff16815260200190815260200160002060009054906101000a900460ff16151514610778576040517f08c379a000000000000000000000000000000000000000000000000000000000815260040161076f90611eea565b60405180910390fd5b61078333600a610f0d565b6001600660003373ffffffffffffffffffffffffffffffffffffffff1673ffffffffffffffffffffffffffffffffffffffff16815260200190815260200160002060006101000a81548160ff021916908315150217905550565b60008073ffffffffffffffffffffffffffffffffffffffff168273ffffffffffffffffffffffffffffffffffffffff16141561084e576040517f08c379a000000000000000000000000000000000000000000000000000000000815260040161084590611f7c565b60405180910390fd5b600360008373ffffffffffffffffffffffffffffffffffffffff1673ffffffffffffffffffffffffffffffffffffffff168152602001908152602001600020549050919050565b6060600180546108a490611c4a565b80601f01602080910402602001604051908101604052809291908181526020018280546108d090611c4a565b801561091d5780601f106108f25761010080835404028352916020019161091d565b820191906000526020600020905b81548152906001019060200180831161090057829003601f168201915b5050505050905090565b610939610932610b50565b83836110e7565b5050565b61094e610948610b50565b83610c11565b61098d576040517f08c379a000000000000000000000000000000000000000000000000000000000815260040161098490611e12565b60405180910390fd5b61099984848484611254565b50505050565b60606109aa82610b05565b60006109b46112b0565b905060008151116109d457604051806020016040528060008152506109ff565b806109de846112c7565b6040516020016109ef929190611fd8565b6040516020818303038152906040525b915050919050565b6000600560008473ffffffffffffffffffffffffffffffffffffffff1673ffffffffffffffffffffffffffffffffffffffff16815260200190815260200160002060008373ffffffffffffffffffffffffffffffffffffffff1673ffffffffffffffffffffffffffffffffffffffff16815260200190815260200160002060009054906101000a900460ff16905092915050565b60007f01ffc9a7000000000000000000000000000000000000000000000000000000007bffffffffffffffffffffffffffffffffffffffffffffffffffffffff1916827bffffffffffffffffffffffffffffffffffffffffffffffffffffffff1916149050919050565b610b0e81611428565b610b4d576040517f08c379a0000000000000000000000000000000000000000000000000000000008152600401610b4490611e7e565b60405180910390fd5b50565b600033905090565b816004600083815260200190815260200160002060006101000a81548173ffffffffffffffffffffffffffffffffffffffff021916908373ffffffffffffffffffffffffffffffffffffffff160217905550808273ffffffffffffffffffffffffffffffffffffffff16610bcb83610633565b73ffffffffffffffffffffffffffffffffffffffff167f8c5be1e5ebec7d5bd14f71427d1e84f3dd0314c0f7b2291e5b200ac8c7c3b92560405160405180910390a45050565b600080610c1d83610633565b90508073ffffffffffffffffffffffffffffffffffffffff168473ffffffffffffffffffffffffffffffffffffffff161480610c5f5750610c5e8185610a07565b5b80610c9d57508373ffffffffffffffffffffffffffffffffffffffff16610c8584610455565b73ffffffffffffffffffffffffffffffffffffffff16145b91505092915050565b8273ffffffffffffffffffffffffffffffffffffffff16610cc682610633565b73ffffffffffffffffffffffffffffffffffffffff1614610d1c576040517f08c379a0000000000000000000000000000000000000000000000000000000008152600401610d139061206e565b60405180910390fd5b600073ffffffffffffffffffffffffffffffffffffffff168273ffffffffffffffffffffffffffffffffffffffff161415610d8c576040517f08c379a0000000000000000000000000000000000000000000000000000000008152600401610d8390612100565b60405180910390fd5b610d97838383611494565b610da2600082610b58565b6001600360008573ffffffffffffffffffffffffffffffffffffffff1673ffffffffffffffffffffffffffffffffffffffff1681526020019081526020016000206000828254610df2919061214f565b925050819055506001600360008473ffffffffffffffffffffffffffffffffffffffff1673ffffffffffffffffffffffffffffffffffffffff1681526020019081526020016000206000828254610e499190612183565b92505081905550816002600083815260200190815260200160002060006101000a81548173ffffffffffffffffffffffffffffffffffffffff021916908373ffffffffffffffffffffffffffffffffffffffff160217905550808273ffffffffffffffffffffffffffffffffffffffff168473ffffffffffffffffffffffffffffffffffffffff167fddf252ad1be2c89b69c2b068fc378daa952ba7f163c4a11628f55a4df523b3ef60405160405180910390a4610f08838383611499565b505050565b600073ffffffffffffffffffffffffffffffffffffffff168273ffffffffffffffffffffffffffffffffffffffff161415610f7d576040517f08c379a0000000000000000000000000000000000000000000000000000000008152600401610f7490612225565b60405180910390fd5b610f8681611428565b15610fc6576040517f08c379a0000000000000000000000000000000000000000000000000000000008152600401610fbd90612291565b60405180910390fd5b610fd260008383611494565b6001600360008473ffffffffffffffffffffffffffffffffffffffff1673ffffffffffffffffffffffffffffffffffffffff16815260200190815260200160002060008282546110229190612183565b92505081905550816002600083815260200190815260200160002060006101000a81548173ffffffffffffffffffffffffffffffffffffffff021916908373ffffffffffffffffffffffffffffffffffffffff160217905550808273ffffffffffffffffffffffffffffffffffffffff16600073ffffffffffffffffffffffffffffffffffffffff167fddf252ad1be2c89b69c2b068fc378daa952ba7f163c4a11628f55a4df523b3ef60405160405180910390a46110e360008383611499565b5050565b8173ffffffffffffffffffffffffffffffffffffffff168373ffffffffffffffffffffffffffffffffffffffff161415611156576040517f08c379a000000000000000000000000000000000000000000000000000000000815260040161114d906122fd565b60405180910390fd5b80600560008573ffffffffffffffffffffffffffffffffffffffff1673ffffffffffffffffffffffffffffffffffffffff16815260200190815260200160002060008473ffffffffffffffffffffffffffffffffffffffff1673ffffffffffffffffffffffffffffffffffffffff16815260200190815260200160002060006101000a81548160ff0219169083151502179055508173ffffffffffffffffffffffffffffffffffffffff168373ffffffffffffffffffffffffffffffffffffffff167f17307eab39ab6107e8899845ad3d59bd9653f200f220920489ca2b5937696c3183604051611247919061170c565b60405180910390a3505050565b61125f848484610ca6565b61126b8484848461149e565b6112aa576040517f08c379a00000000000000000000000000000000000000000000000000000000081526004016112a19061238f565b60405180910390fd5b50505050565b606060405180602001604052806000815250905090565b6060600082141561130f576040518060400160405280600181526020017f30000000000000000000000000000000000000000000000000000000000000008152509050611423565b600082905060005b6000821461134157808061132a906123af565b915050600a8261133a9190612427565b9150611317565b60008167ffffffffffffffff81111561135d5761135c611a2d565b5b6040519080825280601f01601f19166020018201604052801561138f5781602001600182028036833780820191505090505b5090505b6000851461141c576001826113a8919061214f565b9150600a856113b79190612458565b60306113c39190612183565b60f81b8183815181106113d9576113d8612489565b5b60200101907effffffffffffffffffffffffffffffffffffffffffffffffffffffffffffff1916908160001a905350600a856114159190612427565b9450611393565b8093505050505b919050565b60008073ffffffffffffffffffffffffffffffffffffffff166002600084815260200190815260200160002060009054906101000a900473ffffffffffffffffffffffffffffffffffffffff1673ffffffffffffffffffffffffffffffffffffffff1614159050919050565b505050565b505050565b60006114bf8473ffffffffffffffffffffffffffffffffffffffff16611635565b15611628578373ffffffffffffffffffffffffffffffffffffffff1663150b7a026114e8610b50565b8786866040518563ffffffff1660e01b815260040161150a949392919061250d565b602060405180830381600087803b15801561152457600080fd5b505af192505050801561155557506040513d601f19601f82011682018060405250810190611552919061256e565b60015b6115d8573d8060008114611585576040519150601f19603f3d011682016040523d82523d6000602084013e61158a565b606091505b506000815114156115d0576040517f08c379a00000000000000000000000000000000000000000000000000000000081526004016115c79061238f565b60405180910390fd5b805181602001fd5b63150b7a0260e01b7bffffffffffffffffffffffffffffffffffffffffffffffffffffffff1916817bffffffffffffffffffffffffffffffffffffffffffffffffffffffff19161491505061162d565b600190505b949350505050565b6000808273ffffffffffffffffffffffffffffffffffffffff163b119050919050565b6000604051905090565b600080fd5b600080fd5b60007fffffffff0000000000000000000000000000000000000000000000000000000082169050919050565b6116a18161166c565b81146116ac57600080fd5b50565b6000813590506116be81611698565b92915050565b6000602082840312156116da576116d9611662565b5b60006116e8848285016116af565b91505092915050565b60008115159050919050565b611706816116f1565b82525050565b600060208201905061172160008301846116fd565b92915050565b600081519050919050565b600082825260208201905092915050565b60005b83811015611761578082015181840152602081019050611746565b83811115611770576000848401525b50505050565b6000601f19601f8301169050919050565b600061179282611727565b61179c8185611732565b93506117ac818560208601611743565b6117b581611776565b840191505092915050565b600060208201905081810360008301526117da8184611787565b905092915050565b6000819050919050565b6117f5816117e2565b811461180057600080fd5b50565b600081359050611812816117ec565b92915050565b60006020828403121561182e5761182d611662565b5b600061183c84828501611803565b91505092915050565b600073ffffffffffffffffffffffffffffffffffffffff82169050919050565b600061187082611845565b9050919050565b61188081611865565b82525050565b600060208201905061189b6000830184611877565b92915050565b6118aa81611865565b81146118b557600080fd5b50565b6000813590506118c7816118a1565b92915050565b600080604083850312156118e4576118e3611662565b5b60006118f2858286016118b8565b925050602061190385828601611803565b9150509250929050565b60008060006060848603121561192657611925611662565b5b6000611934868287016118b8565b9350506020611945868287016118b8565b925050604061195686828701611803565b9150509250925092565b60006020828403121561197657611975611662565b5b6000611984848285016118b8565b91505092915050565b611996816117e2565b82525050565b60006020820190506119b1600083018461198d565b92915050565b6119c0816116f1565b81146119cb57600080fd5b50565b6000813590506119dd816119b7565b92915050565b600080604083850312156119fa576119f9611662565b5b6000611a08858286016118b8565b9250506020611a19858286016119ce565b9150509250929050565b600080fd5b600080fd5b7f4e487b7100000000000000000000000000000000000000000000000000000000600052604160045260246000fd5b611a6582611776565b810181811067ffffffffffffffff82111715611a8457611a83611a2d565b5b80604052505050565b6000611a97611658565b9050611aa38282611a5c565b919050565b600067ffffffffffffffff821115611ac357611ac2611a2d565b5b611acc82611776565b9050602081019050919050565b82818337600083830152505050565b6000611afb611af684611aa8565b611a8d565b905082815260208101848484011115611b1757611b16611a28565b5b611b22848285611ad9565b509392505050565b600082601f830112611b3f57611b3e611a23565b5b8135611b4f848260208601611ae8565b91505092915050565b60008060008060808587031215611b7257611b71611662565b5b6000611b80878288016118b8565b9450506020611b91878288016118b8565b9350506040611ba287828801611803565b925050606085013567ffffffffffffffff811115611bc357611bc2611667565b5b611bcf87828801611b2a565b91505092959194509250565b60008060408385031215611bf257611bf1611662565b5b6000611c00858286016118b8565b9250506020611c11858286016118b8565b9150509250929050565b7f4e487b7100000000000000000000000000000000000000000000000000000000600052602260045260246000fd5b60006002820490506001821680611c6257607f821691505b60208210811415611c7657611c75611c1b565b5b50919050565b7f4552433732313a20617070726f76616c20746f2063757272656e74206f776e6560008201527f7200000000000000000000000000000000000000000000000000000000000000602082015250565b6000611cd8602183611732565b9150611ce382611c7c565b604082019050919050565b60006020820190508181036000830152611d0781611ccb565b9050919050565b7f4552433732313a20617070726f76652063616c6c6572206973206e6f7420746f60008201527f6b656e206f776e6572206e6f7220617070726f76656420666f7220616c6c0000602082015250565b6000611d6a603e83611732565b9150611d7582611d0e565b604082019050919050565b60006020820190508181036000830152611d9981611d5d565b9050919050565b7f4552433732313a2063616c6c6572206973206e6f7420746f6b656e206f776e6560008201527f72206e6f7220617070726f766564000000000000000000000000000000000000602082015250565b6000611dfc602e83611732565b9150611e0782611da0565b604082019050919050565b60006020820190508181036000830152611e2b81611def565b9050919050565b7f4552433732313a20696e76616c696420746f6b656e2049440000000000000000600082015250565b6000611e68601883611732565b9150611e7382611e32565b602082019050919050565b60006020820190508181036000830152611e9781611e5b565b9050919050565b7f54686973207573657220686173206177617264656420616c7265616479000000600082015250565b6000611ed4601d83611732565b9150611edf82611e9e565b602082019050919050565b60006020820190508181036000830152611f0381611ec7565b9050919050565b7f4552433732313a2061646472657373207a65726f206973206e6f74206120766160008201527f6c6964206f776e65720000000000000000000000000000000000000000000000602082015250565b6000611f66602983611732565b9150611f7182611f0a565b604082019050919050565b60006020820190508181036000830152611f9581611f59565b9050919050565b600081905092915050565b6000611fb282611727565b611fbc8185611f9c565b9350611fcc818560208601611743565b80840191505092915050565b6000611fe48285611fa7565b9150611ff08284611fa7565b91508190509392505050565b7f4552433732313a207472616e736665722066726f6d20696e636f72726563742060008201527f6f776e6572000000000000000000000000000000000000000000000000000000602082015250565b6000612058602583611732565b915061206382611ffc565b604082019050919050565b600060208201905081810360008301526120878161204b565b9050919050565b7f4552433732313a207472616e7366657220746f20746865207a65726f2061646460008201527f7265737300000000000000000000000000000000000000000000000000000000602082015250565b60006120ea602483611732565b91506120f58261208e565b604082019050919050565b60006020820190508181036000830152612119816120dd565b9050919050565b7f4e487b7100000000000000000000000000000000000000000000000000000000600052601160045260246000fd5b600061215a826117e2565b9150612165836117e2565b92508282101561217857612177612120565b5b828203905092915050565b600061218e826117e2565b9150612199836117e2565b9250827fffffffffffffffffffffffffffffffffffffffffffffffffffffffffffffffff038211156121ce576121cd612120565b5b828201905092915050565b7f4552433732313a206d696e7420746f20746865207a65726f2061646472657373600082015250565b600061220f602083611732565b915061221a826121d9565b602082019050919050565b6000602082019050818103600083015261223e81612202565b9050919050565b7f4552433732313a20746f6b656e20616c7265616479206d696e74656400000000600082015250565b600061227b601c83611732565b915061228682612245565b602082019050919050565b600060208201905081810360008301526122aa8161226e565b9050919050565b7f4552433732313a20617070726f766520746f2063616c6c657200000000000000600082015250565b60006122e7601983611732565b91506122f2826122b1565b602082019050919050565b60006020820190508181036000830152612316816122da565b9050919050565b7f4552433732313a207472616e7366657220746f206e6f6e20455243373231526560008201527f63656976657220696d706c656d656e7465720000000000000000000000000000602082015250565b6000612379603283611732565b91506123848261231d565b604082019050919050565b600060208201905081810360008301526123a88161236c565b9050919050565b60006123ba826117e2565b91507fffffffffffffffffffffffffffffffffffffffffffffffffffffffffffffffff8214156123ed576123ec612120565b5b600182019050919050565b7f4e487b7100000000000000000000000000000000000000000000000000000000600052601260045260246000fd5b6000612432826117e2565b915061243d836117e2565b92508261244d5761244c6123f8565b5b828204905092915050565b6000612463826117e2565b915061246e836117e2565b92508261247e5761247d6123f8565b5b828206905092915050565b7f4e487b7100000000000000000000000000000000000000000000000000000000600052603260045260246000fd5b600081519050919050565b600082825260208201905092915050565b60006124df826124b8565b6124e981856124c3565b93506124f9818560208601611743565b61250281611776565b840191505092915050565b60006080820190506125226000830187611877565b61252f6020830186611877565b61253c604083018561198d565b818103606083015261254e81846124d4565b905095945050505050565b60008151905061256881611698565b92915050565b60006020828403121561258457612583611662565b5b600061259284828501612559565b9150509291505056fea26469706673582212206ce6403f8de9832388064f5850f7b47a1b5a2651ae29d6e2b7512a1284d8481464736f6c63430008090033",
  "linkReferences": {},
  "deployedLinkReferences": {}
}