{
  "_format": "hh-sol-artifact-1",
  "contractName": "stuERC721",
  "sourceName": "contracts/StuERC721.sol",
  "abi": [
    {
      "inputs": [],
      "stateMutability": "nonpayable",
      "type": "constructor"
    },
    {
      "anonymous": false,
      "inputs": [
        {
          "indexed": true,
          "internalType": "address",
          "name": "owner",
          "type": "address"
        },
        {
          "indexed": true,
          "internalType": "address",
          "name": "approved",
          "type": "address"
        },
        {
          "indexed": true,
          "internalType": "uint256",
          "name": "tokenId",
          "type": "uint256"
        }
      ],
      "name": "Approval",
      "type": "event"
    },
    {
      "anonymous": false,
      "inputs": [
        {
          "indexed": true,
          "internalType": "address",
          "name": "owner",
          "type": "address"
        },
        {
          "indexed": true,
          "internalType": "address",
          "name": "operator",
          "type": "address"
        },
        {
          "indexed": false,
          "internalType": "bool",
          "name": "approved",
          "type": "bool"
        }
      ],
      "name": "ApprovalForAll",
      "type": "event"
    },
    {
      "anonymous": false,
      "inputs": [
        {
          "indexed": true,
          "internalType": "address",
          "name": "from",
          "type": "address"
        },
        {
          "indexed": true,
          "internalType": "address",
          "name": "to",
          "type": "address"
        },
        {
          "indexed": true,
          "internalType": "uint256",
          "name": "tokenId",
          "type": "uint256"
        }
      ],
      "name": "Transfer",
      "type": "event"
    },
    {
      "inputs": [
        {
          "internalType": "address",
          "name": "to",
          "type": "address"
        },
        {
          "internalType": "uint256",
          "name": "tokenId",
          "type": "uint256"
        }
      ],
      "name": "approve",
      "outputs": [],
      "stateMutability": "nonpayable",
      "type": "function"
    },
    {
      "inputs": [],
      "name": "awardPlayer",
      "outputs": [],
      "stateMutability": "nonpayable",
      "type": "function"
    },
    {
      "inputs": [
        {
          "internalType": "address",
          "name": "owner",
          "type": "address"
        }
      ],
      "name": "balanceOf",
      "outputs": [
        {
          "internalType": "uint256",
          "name": "",
          "type": "uint256"
        }
      ],
      "stateMutability": "view",
      "type": "function"
    },
    {
      "inputs": [
        {
          "internalType": "uint256",
          "name": "tokenId",
          "type": "uint256"
        }
      ],
      "name": "getApproved",
      "outputs": [
        {
          "internalType": "address",
          "name": "",
          "type": "address"
        }
      ],
      "stateMutability": "view",
      "type": "function"
    },
    {
      "inputs": [
        {
          "internalType": "address",
          "name": "owner",
          "type": "address"
        },
        {
          "internalType": "address",
          "name": "operator",
          "type": "address"
        }
      ],
      "name": "isApprovedForAll",
      "outputs": [
        {
          "internalType": "bool",
          "name": "",
          "type": "bool"
        }
      ],
      "stateMutability": "view",
      "type": "function"
    },
    {
      "inputs": [],
      "name": "name",
      "outputs": [
        {
          "internalType": "string",
          "name": "",
          "type": "string"
        }
      ],
      "stateMutability": "view",
      "type": "function"
    },
    {
      "inputs": [
        {
          "internalType": "uint256",
          "name": "tokenId",
          "type": "uint256"
        }
      ],
      "name": "ownerOf",
      "outputs": [
        {
          "internalType": "address",
          "name": "",
          "type": "address"
        }
      ],
      "stateMutability": "view",
      "type": "function"
    },
    {
      "inputs": [
        {
          "internalType": "address",
          "name": "from",
          "type": "address"
        },
        {
          "internalType": "address",
          "name": "to",
          "type": "address"
        },
        {
          "internalType": "uint256",
          "name": "tokenId",
          "type": "uint256"
        }
      ],
      "name": "safeTransferFrom",
      "outputs": [],
      "stateMutability": "nonpayable",
      "type": "function"
    },
    {
      "inputs": [
        {
          "internalType": "address",
          "name": "from",
          "type": "address"
        },
        {
          "internalType": "address",
          "name": "to",
          "type": "address"
        },
        {
          "internalType": "uint256",
          "name": "tokenId",
          "type": "uint256"
        },
        {
          "internalType": "bytes",
          "name": "data",
          "type": "bytes"
        }
      ],
      "name": "safeTransferFrom",
      "outputs": [],
      "stateMutability": "nonpayable",
      "type": "function"
    },
    {
      "inputs": [
        {
          "internalType": "address",
          "name": "operator",
          "type": "address"
        },
        {
          "internalType": "bool",
          "name": "approved",
          "type": "bool"
        }
      ],
      "name": "setApprovalForAll",
      "outputs": [],
      "stateMutability": "nonpayable",
      "type": "function"
    },
    {
      "inputs": [
        {
          "internalType": "bytes4",
          "name": "interfaceId",
          "type": "bytes4"
        }
      ],
      "name": "supportsInterface",
      "outputs": [
        {
          "internalType": "bool",
          "name": "",
          "type": "bool"
        }
      ],
      "stateMutability": "view",
      "type": "function"
    },
    {
      "inputs": [],
      "name": "symbol",
      "outputs": [
        {
          "internalType": "string",
          "name": "",
          "type": "string"
        }
      ],
      "stateMutability": "view",
      "type": "function"
    },
    {
      "inputs": [
        {
          "internalType": "uint256",
          "name": "tokenId",
          "type": "uint256"
        }
      ],
      "name": "tokenURI",
      "outputs": [
        {
          "internalType": "string",
          "name": "",
          "type": "string"
        }
      ],
      "stateMutability": "view",
      "type": "function"
    },
    {
      "inputs": [
        {
          "internalType": "address",
          "name": "from",
          "type": "address"
        },
        {
          "internalType": "address",
          "name": "to",
          "type": "address"
        },
        {
          "internalType": "uint256",
          "name": "tokenId",
          "type": "uint256"
        }
      ],
      "name": "transferFrom",
      "outputs": [],
      "stateMutability": "nonpayable",
      "type": "function"
    }
  ],
  "bytecode": "0x60806040523480156200001157600080fd5b506040518060400160405280600881526020017f47616d654974656d0000000000000000000000000000000000000000000000008152506040518060400160405280600381526020017f49544d0000000000000000000000000000000000000000000000000000000000815250816000908051906020019062000096929190620000b8565b508060019080519060200190620000af929190620000b8565b505050620001cd565b828054620000c69062000197565b90600052602060002090601f016020900481019282620000ea576000855562000136565b82601f106200010557805160ff191683800117855562000136565b8280016001018555821562000136579182015b828111156200013557825182559160200191906001019062000118565b5b50905062000145919062000149565b5090565b5b80821115620001645760008160009055506001016200014a565b5090565b7f4e487b7100000000000000000000000000000000000000000000000000000000600052602260045260246000fd5b60006002820490506001821680620001b057607f821691505b60208210811415620001c757620001c662000168565b5b50919050565b61260d80620001dd6000396000f3fe608060405234801561001057600080fd5b50600436106100ea5760003560e01c80636c9578a51161008c578063a22cb46511610066578063a22cb46514610249578063b88d4fde14610265578063c87b56dd14610281578063e985e9c5146102b1576100ea565b80636c9578a5146101f157806370a08231146101fb57806395d89b411461022b576100ea565b8063095ea7b3116100c8578063095ea7b31461016d57806323b872dd1461018957806342842e0e146101a55780636352211e146101c1576100ea565b806301ffc9a7146100ef57806306fdde031461011f578063081812fc1461013d575b600080fd5b61010960048036038101906101049190611700565b6102e1565b6040516101169190611748565b60405180910390f35b6101276103c3565b60405161013491906117fc565b60405180910390f35b61015760048036038101906101529190611854565b610455565b60405161016491906118c2565b60405180910390f35b61018760048036038101906101829190611909565b61049b565b005b6101a3600480360381019061019e9190611949565b6105b3565b005b6101bf60048036038101906101ba9190611949565b610613565b005b6101db60048036038101906101d69190611854565b610633565b6040516101e891906118c2565b60405180910390f35b6101f96106e5565b005b6102156004803603810190610210919061199c565b6107f5565b60405161022291906119d8565b60405180910390f35b6102336108ad565b60405161024091906117fc565b60405180910390f35b610263600480360381019061025e9190611a1f565b61093f565b005b61027f600480360381019061027a9190611b94565b610955565b005b61029b60048036038101906102969190611854565b6109b7565b6040516102a891906117fc565b60405180910390f35b6102cb60048036038101906102c69190611c17565b610a1f565b6040516102d89190611748565b60405180910390f35b60007f80ac58cd000000000000000000000000000000000000000000000000000000007bffffffffffffffffffffffffffffffffffffffffffffffffffffffff1916827bffffffffffffffffffffffffffffffffffffffffffffffffffffffff191614806103ac57507f5b5e139f000000000000000000000000000000000000000000000000000000007bffffffffffffffffffffffffffffffffffffffffffffffffffffffff1916827bffffffffffffffffffffffffffffffffffffffffffffffffffffffff1916145b806103bc57506103bb82610ab3565b5b9050919050565b6060600080546103d290611c86565b80601f01602080910402602001604051908101604052809291908181526020018280546103fe90611c86565b801561044b5780601f106104205761010080835404028352916020019161044b565b820191906000526020600020905b81548152906001019060200180831161042e57829003601f168201915b5050505050905090565b600061046082610b1d565b6004600083815260200190815260200160002060009054906101000a900473ffffffffffffffffffffffffffffffffffffffff169050919050565b60006104a682610633565b90508073ffffffffffffffffffffffffffffffffffffffff168373ffffffffffffffffffffffffffffffffffffffff161415610517576040517f08c379a000000000000000000000000000000000000000000000000000000000815260040161050e90611d2a565b60405180910390fd5b8073ffffffffffffffffffffffffffffffffffffffff16610536610b68565b73ffffffffffffffffffffffffffffffffffffffff16148061056557506105648161055f610b68565b610a1f565b5b6105a4576040517f08c379a000000000000000000000000000000000000000000000000000000000815260040161059b90611dbc565b60405180910390fd5b6105ae8383610b70565b505050565b6105c46105be610b68565b82610c29565b610603576040517f08c379a00000000000000000000000000000000000000000000000000000000081526004016105fa90611e4e565b60405180910390fd5b61060e838383610cbe565b505050565b61062e83838360405180602001604052806000815250610955565b505050565b6000806002600084815260200190815260200160002060009054906101000a900473ffffffffffffffffffffffffffffffffffffffff169050600073ffffffffffffffffffffffffffffffffffffffff168173ffffffffffffffffffffffffffffffffffffffff1614156106dc576040517f08c379a00000000000000000000000000000000000000000000000000000000081526004016106d390611eba565b60405180910390fd5b80915050919050565b6106ef6007610f25565b60001515600660003373ffffffffffffffffffffffffffffffffffffffff1673ffffffffffffffffffffffffffffffffffffffff16815260200190815260200160002060009054906101000a900460ff16151514610782576040517f08c379a000000000000000000000000000000000000000000000000000000000815260040161077990611f26565b60405180910390fd5b600061078e6007610f3b565b905061079a3382610f49565b6001600660003373ffffffffffffffffffffffffffffffffffffffff1673ffffffffffffffffffffffffffffffffffffffff16815260200190815260200160002060006101000a81548160ff02191690831515021790555050565b60008073ffffffffffffffffffffffffffffffffffffffff168273ffffffffffffffffffffffffffffffffffffffff161415610866576040517f08c379a000000000000000000000000000000000000000000000000000000000815260040161085d90611fb8565b60405180910390fd5b600360008373ffffffffffffffffffffffffffffffffffffffff1673ffffffffffffffffffffffffffffffffffffffff168152602001908152602001600020549050919050565b6060600180546108bc90611c86565b80601f01602080910402602001604051908101604052809291908181526020018280546108e890611c86565b80156109355780601f1061090a57610100808354040283529160200191610935565b820191906000526020600020905b81548152906001019060200180831161091857829003601f168201915b5050505050905090565b61095161094a610b68565b8383611123565b5050565b610966610960610b68565b83610c29565b6109a5576040517f08c379a000000000000000000000000000000000000000000000000000000000815260040161099c90611e4e565b60405180910390fd5b6109b184848484611290565b50505050565b60606109c282610b1d565b60006109cc6112ec565b905060008151116109ec5760405180602001604052806000815250610a17565b806109f684611303565b604051602001610a07929190612014565b6040516020818303038152906040525b915050919050565b6000600560008473ffffffffffffffffffffffffffffffffffffffff1673ffffffffffffffffffffffffffffffffffffffff16815260200190815260200160002060008373ffffffffffffffffffffffffffffffffffffffff1673ffffffffffffffffffffffffffffffffffffffff16815260200190815260200160002060009054906101000a900460ff16905092915050565b60007f01ffc9a7000000000000000000000000000000000000000000000000000000007bffffffffffffffffffffffffffffffffffffffffffffffffffffffff1916827bffffffffffffffffffffffffffffffffffffffffffffffffffffffff1916149050919050565b610b2681611464565b610b65576040517f08c379a0000000000000000000000000000000000000000000000000000000008152600401610b5c90611eba565b60405180910390fd5b50565b600033905090565b816004600083815260200190815260200160002060006101000a81548173ffffffffffffffffffffffffffffffffffffffff021916908373ffffffffffffffffffffffffffffffffffffffff160217905550808273ffffffffffffffffffffffffffffffffffffffff16610be383610633565b73ffffffffffffffffffffffffffffffffffffffff167f8c5be1e5ebec7d5bd14f71427d1e84f3dd0314c0f7b2291e5b200ac8c7c3b92560405160405180910390a45050565b600080610c3583610633565b90508073ffffffffffffffffffffffffffffffffffffffff168473ffffffffffffffffffffffffffffffffffffffff161480610c775750610c768185610a1f565b5b80610cb557508373ffffffffffffffffffffffffffffffffffffffff16610c9d84610455565b73ffffffffffffffffffffffffffffffffffffffff16145b91505092915050565b8273ffffffffffffffffffffffffffffffffffffffff16610cde82610633565b73ffffffffffffffffffffffffffffffffffffffff1614610d34576040517f08c379a0000000000000000000000000000000000000000000000000000000008152600401610d2b906120aa565b60405180910390fd5b600073ffffffffffffffffffffffffffffffffffffffff168273ffffffffffffffffffffffffffffffffffffffff161415610da4576040517f08c379a0000000000000000000000000000000000000000000000000000000008152600401610d9b9061213c565b60405180910390fd5b610daf8383836114d0565b610dba600082610b70565b6001600360008573ffffffffffffffffffffffffffffffffffffffff1673ffffffffffffffffffffffffffffffffffffffff1681526020019081526020016000206000828254610e0a919061218b565b925050819055506001600360008473ffffffffffffffffffffffffffffffffffffffff1673ffffffffffffffffffffffffffffffffffffffff1681526020019081526020016000206000828254610e6191906121bf565b92505081905550816002600083815260200190815260200160002060006101000a81548173ffffffffffffffffffffffffffffffffffffffff021916908373ffffffffffffffffffffffffffffffffffffffff160217905550808273ffffffffffffffffffffffffffffffffffffffff168473ffffffffffffffffffffffffffffffffffffffff167fddf252ad1be2c89b69c2b068fc378daa952ba7f163c4a11628f55a4df523b3ef60405160405180910390a4610f208383836114d5565b505050565b6001816000016000828254019250508190555050565b600081600001549050919050565b600073ffffffffffffffffffffffffffffffffffffffff168273ffffffffffffffffffffffffffffffffffffffff161415610fb9576040517f08c379a0000000000000000000000000000000000000000000000000000000008152600401610fb090612261565b60405180910390fd5b610fc281611464565b15611002576040517f08c379a0000000000000000000000000000000000000000000000000000000008152600401610ff9906122cd565b60405180910390fd5b61100e600083836114d0565b6001600360008473ffffffffffffffffffffffffffffffffffffffff1673ffffffffffffffffffffffffffffffffffffffff168152602001908152602001600020600082825461105e91906121bf565b92505081905550816002600083815260200190815260200160002060006101000a81548173ffffffffffffffffffffffffffffffffffffffff021916908373ffffffffffffffffffffffffffffffffffffffff160217905550808273ffffffffffffffffffffffffffffffffffffffff16600073ffffffffffffffffffffffffffffffffffffffff167fddf252ad1be2c89b69c2b068fc378daa952ba7f163c4a11628f55a4df523b3ef60405160405180910390a461111f600083836114d5565b5050565b8173ffffffffffffffffffffffffffffffffffffffff168373ffffffffffffffffffffffffffffffffffffffff161415611192576040517f08c379a000000000000000000000000000000000000000000000000000000000815260040161118990612339565b60405180910390fd5b80600560008573ffffffffffffffffffffffffffffffffffffffff1673ffffffffffffffffffffffffffffffffffffffff16815260200190815260200160002060008473ffffffffffffffffffffffffffffffffffffffff1673ffffffffffffffffffffffffffffffffffffffff16815260200190815260200160002060006101000a81548160ff0219169083151502179055508173ffffffffffffffffffffffffffffffffffffffff168373ffffffffffffffffffffffffffffffffffffffff167f17307eab39ab6107e8899845ad3d59bd9653f200f220920489ca2b5937696c31836040516112839190611748565b60405180910390a3505050565b61129b848484610cbe565b6112a7848484846114da565b6112e6576040517f08c379a00000000000000000000000000000000000000000000000000000000081526004016112dd906123cb565b60405180910390fd5b50505050565b606060405180602001604052806000815250905090565b6060600082141561134b576040518060400160405280600181526020017f3000000000000000000000000000000000000000000000000000000000000000815250905061145f565b600082905060005b6000821461137d578080611366906123eb565b915050600a826113769190612463565b9150611353565b60008167ffffffffffffffff81111561139957611398611a69565b5b6040519080825280601f01601f1916602001820160405280156113cb5781602001600182028036833780820191505090505b5090505b60008514611458576001826113e4919061218b565b9150600a856113f39190612494565b60306113ff91906121bf565b60f81b818381518110611415576114146124c5565b5b60200101907effffffffffffffffffffffffffffffffffffffffffffffffffffffffffffff1916908160001a905350600a856114519190612463565b94506113cf565b8093505050505b919050565b60008073ffffffffffffffffffffffffffffffffffffffff166002600084815260200190815260200160002060009054906101000a900473ffffffffffffffffffffffffffffffffffffffff1673ffffffffffffffffffffffffffffffffffffffff1614159050919050565b505050565b505050565b60006114fb8473ffffffffffffffffffffffffffffffffffffffff16611671565b15611664578373ffffffffffffffffffffffffffffffffffffffff1663150b7a02611524610b68565b8786866040518563ffffffff1660e01b81526004016115469493929190612549565b602060405180830381600087803b15801561156057600080fd5b505af192505050801561159157506040513d601f19601f8201168201806040525081019061158e91906125aa565b60015b611614573d80600081146115c1576040519150601f19603f3d011682016040523d82523d6000602084013e6115c6565b606091505b5060008151141561160c576040517f08c379a0000000000000000000000000000000000000000000000000000000008152600401611603906123cb565b60405180910390fd5b805181602001fd5b63150b7a0260e01b7bffffffffffffffffffffffffffffffffffffffffffffffffffffffff1916817bffffffffffffffffffffffffffffffffffffffffffffffffffffffff191614915050611669565b600190505b949350505050565b6000808273ffffffffffffffffffffffffffffffffffffffff163b119050919050565b6000604051905090565b600080fd5b600080fd5b60007fffffffff0000000000000000000000000000000000000000000000000000000082169050919050565b6116dd816116a8565b81146116e857600080fd5b50565b6000813590506116fa816116d4565b92915050565b6000602082840312156117165761171561169e565b5b6000611724848285016116eb565b91505092915050565b60008115159050919050565b6117428161172d565b82525050565b600060208201905061175d6000830184611739565b92915050565b600081519050919050565b600082825260208201905092915050565b60005b8381101561179d578082015181840152602081019050611782565b838111156117ac576000848401525b50505050565b6000601f19601f8301169050919050565b60006117ce82611763565b6117d8818561176e565b93506117e881856020860161177f565b6117f1816117b2565b840191505092915050565b6000602082019050818103600083015261181681846117c3565b905092915050565b6000819050919050565b6118318161181e565b811461183c57600080fd5b50565b60008135905061184e81611828565b92915050565b60006020828403121561186a5761186961169e565b5b60006118788482850161183f565b91505092915050565b600073ffffffffffffffffffffffffffffffffffffffff82169050919050565b60006118ac82611881565b9050919050565b6118bc816118a1565b82525050565b60006020820190506118d760008301846118b3565b92915050565b6118e6816118a1565b81146118f157600080fd5b50565b600081359050611903816118dd565b92915050565b600080604083850312156119205761191f61169e565b5b600061192e858286016118f4565b925050602061193f8582860161183f565b9150509250929050565b6000806000606084860312156119625761196161169e565b5b6000611970868287016118f4565b9350506020611981868287016118f4565b92505060406119928682870161183f565b9150509250925092565b6000602082840312156119b2576119b161169e565b5b60006119c0848285016118f4565b91505092915050565b6119d28161181e565b82525050565b60006020820190506119ed60008301846119c9565b92915050565b6119fc8161172d565b8114611a0757600080fd5b50565b600081359050611a19816119f3565b92915050565b60008060408385031215611a3657611a3561169e565b5b6000611a44858286016118f4565b9250506020611a5585828601611a0a565b9150509250929050565b600080fd5b600080fd5b7f4e487b7100000000000000000000000000000000000000000000000000000000600052604160045260246000fd5b611aa1826117b2565b810181811067ffffffffffffffff82111715611ac057611abf611a69565b5b80604052505050565b6000611ad3611694565b9050611adf8282611a98565b919050565b600067ffffffffffffffff821115611aff57611afe611a69565b5b611b08826117b2565b9050602081019050919050565b82818337600083830152505050565b6000611b37611b3284611ae4565b611ac9565b905082815260208101848484011115611b5357611b52611a64565b5b611b5e848285611b15565b509392505050565b600082601f830112611b7b57611b7a611a5f565b5b8135611b8b848260208601611b24565b91505092915050565b60008060008060808587031215611bae57611bad61169e565b5b6000611bbc878288016118f4565b9450506020611bcd878288016118f4565b9350506040611bde8782880161183f565b925050606085013567ffffffffffffffff811115611bff57611bfe6116a3565b5b611c0b87828801611b66565b91505092959194509250565b60008060408385031215611c2e57611c2d61169e565b5b6000611c3c858286016118f4565b9250506020611c4d858286016118f4565b9150509250929050565b7f4e487b7100000000000000000000000000000000000000000000000000000000600052602260045260246000fd5b60006002820490506001821680611c9e57607f821691505b60208210811415611cb257611cb1611c57565b5b50919050565b7f4552433732313a20617070726f76616c20746f2063757272656e74206f776e6560008201527f7200000000000000000000000000000000000000000000000000000000000000602082015250565b6000611d1460218361176e565b9150611d1f82611cb8565b604082019050919050565b60006020820190508181036000830152611d4381611d07565b9050919050565b7f4552433732313a20617070726f76652063616c6c6572206973206e6f7420746f60008201527f6b656e206f776e6572206e6f7220617070726f76656420666f7220616c6c0000602082015250565b6000611da6603e8361176e565b9150611db182611d4a565b604082019050919050565b60006020820190508181036000830152611dd581611d99565b9050919050565b7f4552433732313a2063616c6c6572206973206e6f7420746f6b656e206f776e6560008201527f72206e6f7220617070726f766564000000000000000000000000000000000000602082015250565b6000611e38602e8361176e565b9150611e4382611ddc565b604082019050919050565b60006020820190508181036000830152611e6781611e2b565b9050919050565b7f4552433732313a20696e76616c696420746f6b656e2049440000000000000000600082015250565b6000611ea460188361176e565b9150611eaf82611e6e565b602082019050919050565b60006020820190508181036000830152611ed381611e97565b9050919050565b7f54686973207573657220686173206177617264656420616c7265616479000000600082015250565b6000611f10601d8361176e565b9150611f1b82611eda565b602082019050919050565b60006020820190508181036000830152611f3f81611f03565b9050919050565b7f4552433732313a2061646472657373207a65726f206973206e6f74206120766160008201527f6c6964206f776e65720000000000000000000000000000000000000000000000602082015250565b6000611fa260298361176e565b9150611fad82611f46565b604082019050919050565b60006020820190508181036000830152611fd181611f95565b9050919050565b600081905092915050565b6000611fee82611763565b611ff88185611fd8565b935061200881856020860161177f565b80840191505092915050565b60006120208285611fe3565b915061202c8284611fe3565b91508190509392505050565b7f4552433732313a207472616e736665722066726f6d20696e636f72726563742060008201527f6f776e6572000000000000000000000000000000000000000000000000000000602082015250565b600061209460258361176e565b915061209f82612038565b604082019050919050565b600060208201905081810360008301526120c381612087565b9050919050565b7f4552433732313a207472616e7366657220746f20746865207a65726f2061646460008201527f7265737300000000000000000000000000000000000000000000000000000000602082015250565b600061212660248361176e565b9150612131826120ca565b604082019050919050565b6000602082019050818103600083015261215581612119565b9050919050565b7f4e487b7100000000000000000000000000000000000000000000000000000000600052601160045260246000fd5b60006121968261181e565b91506121a18361181e565b9250828210156121b4576121b361215c565b5b828203905092915050565b60006121ca8261181e565b91506121d58361181e565b9250827fffffffffffffffffffffffffffffffffffffffffffffffffffffffffffffffff0382111561220a5761220961215c565b5b828201905092915050565b7f4552433732313a206d696e7420746f20746865207a65726f2061646472657373600082015250565b600061224b60208361176e565b915061225682612215565b602082019050919050565b6000602082019050818103600083015261227a8161223e565b9050919050565b7f4552433732313a20746f6b656e20616c7265616479206d696e74656400000000600082015250565b60006122b7601c8361176e565b91506122c282612281565b602082019050919050565b600060208201905081810360008301526122e6816122aa565b9050919050565b7f4552433732313a20617070726f766520746f2063616c6c657200000000000000600082015250565b600061232360198361176e565b915061232e826122ed565b602082019050919050565b6000602082019050818103600083015261235281612316565b9050919050565b7f4552433732313a207472616e7366657220746f206e6f6e20455243373231526560008201527f63656976657220696d706c656d656e7465720000000000000000000000000000602082015250565b60006123b560328361176e565b91506123c082612359565b604082019050919050565b600060208201905081810360008301526123e4816123a8565b9050919050565b60006123f68261181e565b91507fffffffffffffffffffffffffffffffffffffffffffffffffffffffffffffffff8214156124295761242861215c565b5b600182019050919050565b7f4e487b7100000000000000000000000000000000000000000000000000000000600052601260045260246000fd5b600061246e8261181e565b91506124798361181e565b92508261248957612488612434565b5b828204905092915050565b600061249f8261181e565b91506124aa8361181e565b9250826124ba576124b9612434565b5b828206905092915050565b7f4e487b7100000000000000000000000000000000000000000000000000000000600052603260045260246000fd5b600081519050919050565b600082825260208201905092915050565b600061251b826124f4565b61252581856124ff565b935061253581856020860161177f565b61253e816117b2565b840191505092915050565b600060808201905061255e60008301876118b3565b61256b60208301866118b3565b61257860408301856119c9565b818103606083015261258a8184612510565b905095945050505050565b6000815190506125a4816116d4565b92915050565b6000602082840312156125c0576125bf61169e565b5b60006125ce84828501612595565b9150509291505056fea2646970667358221220a7fe555293b93ad2a6e8c474ef56ce52bb5db20d7e329de08f099fd5029d566e64736f6c63430008090033",
  "linkReferences": {},
  "deployedLinkReferences": {}
}